:100000003BC0CBC154C053C052C051C050C04FC000
:100010004EC04DC010C64BC04AC049C048C047C0C2
:1000200046C045C044C00902120001010080190900
:10003000040000000000000012011001FF00000891
:10004000C016DC050401010200010E035500530037
:1000500042006100730070001C0377007700770096
:100060002E00660069007300630068006C002E00BB
:10007000640065000403090411241FBECFE5D4E029
:10008000DEBFCDBF10E0A0E6B0E0E0E1F3E102C0EA
:1000900005900D92A236B107D9F721E0A2E6B0E0B3
:1000A00001C01D92AE3AB207E1F707D92FC9A8CF18
:1000B0001F93CF93DF9360918A01635067FF36C02F
:1000C0008091610084FF04C0909160009F3F59F4CB
:1000D00094E102C0915011F186B38370D9F3DF919E
:1000E000CF911F910895192F993008F05DC0892F85
:1000F000811B8093600080917A0128E88227809399
:100100007A01911128C060E08BE791E042D184E050
:100110009FEF9093600080936100DACF10928B0183
:1001200010928501DF91CF911F9108952091870151
:100130008CE090E0821B9109EC01C257DE4F809168
:1001400086018D3209F43EC08091620087FD60C057
:1001500010928A01B5CF8091620087FD27C0E0919F
:100160008801F091890186FF5DC08FEF810F90E0DB
:1001700001968E0F9F1F2BE731E04491D9014C93DC
:100180002F5F3F4F31968E179F07B9F790938901E4
:1001900080938801612F8BE791E0FBD084E0810F91
:1001A000183009F4B8CFB4CF18E0A1CF612F8BE796
:1001B00091E019D7182F893068F38FEF8093600092
:1001C0008EE1A9CF683021F683EC80937A018AE52D
:1001D000809361001092620088818076A1F52A8167
:1001E00010928301998191113DC01092840183E89E
:1001F00091E0909389018093880182E09F81911121
:1002000004C09E81981708F4892F80936000A0CFC6
:10021000CE0165D78F3F11F1882309F499CF109251
:10022000600096CFABE7B1E08FEF810F90E00196D1
:100230008E0F9F1F9F013196E90128812D93E817AA
:10024000F907C1F7A3CFCE010FD58F3FB9F698813B
:1002500097FD8E8190E890936200D7CF8EE18093D6
:10026000610076CF953079F09630F1F09830A1F0BA
:10027000993029F19A3061F123E831E03093890116
:1002800020938801BBCF20938B0123E831E030938A
:10029000890120938801B2CF8DE891E09093890184
:1002A0008093880181E0AACF9B81913051F19230F7
:1002B00099F19330A9F090E4909362009FCF20933E
:1002C0008D0123E831E0309389012093880196CF96
:1002D00083E891E0909389018093880181E08ECF3B
:1002E000222381F1213019F1223029F78AE490E0AC
:1002F000909389018093880180E4809362008EE06E
:100300007DCF88E390E0909389018093880180E419
:100310008093620082E172CF86E290E0909389013F
:100320008093880180E48093620082E167CF88E552
:1003300090E0909389018093880180E4809362002B
:100340008CE15CCF84E790E09093890180938801F1
:1003500080E48093620084E051CF85B7836085BFDD
:100360008BB780648BBF0895A82FB92F80E090E0F1
:1003700041E050EA609530E009C02D9182279795C1
:10038000879510F084279527305EC8F36F5FA8F338
:100390000895EADF8D939D930895CF93CFB7CF93C0
:1003A000C395B09BE9F7B09B09C0B09B07C0B09B59
:1003B00005C0B09B03C0B09B01C0A1C0DF93C0913A
:1003C0008701DD27C257DE4FB09B02C0DF91EBCF24
:1003D0002F930F931F9306B32FEF00FB20F94F933A
:1003E0003F9316B34FEF012700FB21F93BE031C0EB
:1003F0004E7F012F16B3216028C0102F4D7F226041
:10040000000006B329C04B7F2460012F000016B303
:100410002BC016B3477F28602AC04F7E06B32061E9
:100420002CC04F7D16B320622FC04F7B06B32064D3
:1004300032C0422706B349934FEF0000102710FB4C
:1004400020F916B31370C9F1297F91F2012700FB3F
:1004500021F906B3237F89F2315058F1102710FBA0
:1004600022F916B3277E79F2012700FB23F92F7CAE
:1004700081F206B3102710FB24F92F7971F200C026
:1004800016B3012700FB25F92F7359F200C006B3FC
:10049000102710FB26F9223040F200C016B30127C6
:1004A00000FB27F9243028F64F77206816B30000A8
:1004B000F9CF10E41ABF002717C03B503195C31B7A
:1004C000D04010E41ABF0881033CE9F00B34D9F0A6
:1004D000209185011981110F1213EDCF093641F1D9
:1004E0000D3211F0013E39F700938C013F914F918D
:1004F0001F910F912F91DF91CAB7C6FD51CFCF91B8
:10050000CFBFCF91189520918C01222379F31091C0
:100510008A01112311F5343012F130938A012093AE
:100520008601109187013BE0311B3093870117C092
:1005300000918A0101308CF40AE53091610034FDAC
:1005400010C000936100CAE7D1E00FC02795A8F45E
:100550005150A9F4220F0000F9CF4AE503C042ED43
:1005600001C0432FC4E1D0E032E017B31360C09A5A
:1005700017BB08B320E413E05F93012756E008BBE4
:10058000279520F4515021F4220FF9CF012756E08E
:1005900000003B5A08BBD0F2279528F4515029F4AB
:1005A000220F0000F9CF012756E0279508BB20F461
:1005B000515021F4220FF9CF012756E0299133231E
:1005C00008BB21F60C7F10918B01110FC651D04052
:1005D00008BB11F01093850110E41ABF016017B336
:1005E0001C7F402F4C7F5F9100C000C008BB17BB31
:1005F00048BB7CCF482F58E080E047FD18C0C39827
:10060000440F880FB4998F5FC59A32B72091A90122
:1006100092B7931B9217E0F3C59832B72091A901C6
:1006200092B7931B9217E0F3515039F70895C39A8C
:10063000E7CF8FB9779BFECF8FB10895CF93DF932C
:1006400000D000D0CDB7DEB769837A838B839C83DB
:10065000DC01CB0121E1B695A795979587952A9561
:10066000D1F72091A801281709F18093A801E09102
:10067000A501F091A6018DE40995E091A501F09105
:10068000A60180E00995E091A501F091A601809175
:10069000A8010995E091A501F091A60180E00F90D5
:1006A0000F900F900F90DF91CF9109940F900F90C2
:1006B0000F900F90DF91CF9108958091A7018DB990
:1006C0008091A4018EB90895811110C089E193E051
:1006D0009093A6018093A50181E08093A90182E512
:1006E0008093A70181E08093A40108958830F0F001
:1006F00029E133E03093A6012093A5011092A401D3
:1007000091E09093A9018B3069F040F4883059F161
:10071000893029F782E58093A70108958C30F9F696
:100720009093A40181E58093A70108952AEF32E018
:100730003093A6012093A501853009F140F4833060
:10074000D1F0843051F488E18093A9010895863076
:1007500079F083E08093A9010895823041F480E626
:100760008093A901089583E58093A701089580EC03
:100770008093A901089580E38093A90108958CE0F6
:100780008093A901089522B79091A90182B7821B95
:100790008917E0F3089587B38C6287BBC298C59828
:1007A00022B79091A90182B7821B8917E0F3C29A00
:1007B00022B79091A90182B7821B8917E0F3C298F2
:1007C0008091A5019091A6018951934019F0109252
:1007D000A80108958091A7018DB98091A4018EB9D7
:1007E0001092A801089587B3837D87BB88B3837D6A
:1007F00088BB1DB8089580E187BB84E088BB80EC8E
:100800008DB90895CF93DF93D0E2E091A501F091E7
:10081000A6018CEA0995E091A501F091A60183E576
:100820000995E091A501F091A60180E00995C82FF6
:10083000E091A501F091A60180E00995C33561F131
:100840001DB822B79091A90182B7821B8917E0F3E6
:10085000C29A22B79091A90182B7821B8917E0F34F
:10086000C29822B79091A90182B7821B8917E0F341
:100870008091A5019091A6018951934031F0D1500A
:1008800021F681E0DF91CF9108958091A7018DB984
:100890008091A4018EB9F3CF80E0DF91CF910895CC
:1008A000CF93DF9300D000D0CDB7DEB769837A83D2
:1008B0008B839C8369817A818B819C81BFDE898156
:1008C000880F880F880F8870E091A501F091A6012C
:1008D0008062099589819A81AB81BC8129E0B695B6
:1008E000A795979587952A95D1F7E091A501F09165
:1008F000A601099589819A81AB81BC81B695A7959E
:1009000097958795E091A501F091A6010995E09151
:10091000A501F091A60180E00F900F900F900F902D
:10092000DF91CF910994CF93DF9300D000D000D016
:10093000CDB7DEB769837A838B839C834D832E8307
:1009400069817A818B819C8179DE8981880F880F0A
:10095000880F8870E091A501F091A6018064099547
:1009600089819A81AB81BC8129E0B695A79597953D
:1009700087952A95D1F7E091A501F091A6010995F7
:1009800089819A81AB81BC81B695A795979587950A
:10099000E091A501F091A6010995E091A501F091E2
:1009A000A6018D8109958E818823E1F09D819F3775
:1009B00019F182B78D839EE19E8369817A818B8153
:1009C0009C816EDF8F3771F482B79D81891B8D33D7
:1009D000A0F382B78D839E8191509E839111EDCFBC
:1009E00081E001C080E026960FB6F894DEBF0FBE0E
:1009F000CDBFDF91CF9108958FE0A8D080E0F3CFF5
:100A0000CF93DF9300D000D000D0CDB7DEB769839D
:100A10007A838B839C834D8369817A818B819C81CE
:100A20000DDEE091A501F091A6018CE40995898184
:100A30009A81AB81BC8129E0B695A795979587955A
:100A40002A95D1F7E091A501F091A6010995898138
:100A50009A81AB81BC81B695A79597958795E091D2
:100A6000A501F091A6010995E091A501F091A601DB
:100A700080E009958D818F3F19F192B79D838EE1BA
:100A80008E8369817A818B819C810ADF8F3FB1F4EB
:100A900082B79D81891B8D33A0F382B78D839E81A0
:100AA00091509E839111EDCF81E026960FB6F89478
:100AB000DEBF0FBECDBFDF91CF91089580E0F5CFAF
:100AC0008FE044D080E0F1CFCF93DF93EC01E09151
:100AD000A501F091A60180EA0995E091A501F091A8
:100AE000A6018D2F0995E091A501F091A6018C2F0B
:100AF0000995E091A501F091A60180E0DF91CF91E9
:100B000009941F93CF93DF93D82F192FC62FE0910D
:100B1000A501F091A60180EC0995E091A501F09165
:100B2000A601812F0995E091A501F091A6018D2FD5
:100B30000995E091A501F091A6018C2F09958EE110
:100B400005D080E0DF91CF911F910895882349F06F
:100B500030E022B792B7921B9C33E0F33F5F8313E0
:100B6000F8CF0895BD9ABB98C39A50E217D05A9512
:100B7000E9F70895AC0188E605D0842F03D089E613
:100B800001D0852F0FD028E030E0382780FB8695F4
:100B900006D02A95D1F730FB02D000D06894BB98DC
:100BA000C39A16F0C398BB9AE091AA01F091AB01E9
:100BB0003197F0F7C59AE6B3E3FBE091AA01F09113
:100BC000AB013197F0F7C598089520ECE7DF46F4C4
:100BD0002A95E1F780E02AE1E5DF2A95E9F7DECF03
:100BE00028E030E0DBDF869587F938272A95D1F7B2
:100BF000D5DF27F9322772F3D1DFD0CFDB01742F95
:100C0000B9DF84E2BFDFE1DF8D937A95D1F70895F4
:100C1000DB01742FAFDF83EFB5DF8DE1B3DF84E657
:100C2000B1DF8D91AFDF82E7ADDFCFDF8078D9F71D
:100C30007A9589F7089578948F938FB78F939F93C0
:100C4000EF93FF93809170009FB1E82FF0E0EE5892
:100C5000FF4F90838F5F80937000FF91EF919F9182
:100C60008F918FBF8F911895CF93DF93EC0189817E
:100C70008130D9F1823009F470C0833009F44BC05F
:100C8000843009F46EC0873009F488C0853009F4D7
:100C9000A2C0863009F4A4C0883009F40EC189309E
:100CA00009F4FAC08A3009F42BC18B3009F4CBC0A7
:100CB0008C3009F42CC18D3009F443C18E3009F415
:100CC00045C18F3009F446C1803109F45CC18F37CA
:100CD00009F472C1803209F47AC1823209F47DC10B
:100CE000813209F4C0C080E00AC09A9B11C0809193
:100CF0006E00EADC10926D00A9984DDD80E022E7DD
:100D000031E03093890120938801DF91CF910895DC
:100D100085E0DADCEFCFE091A501F091A6018A81B0
:100D2000099580937201E091A501F091A6018B8154
:100D3000099580937301E091A501F091A6018C8142
:100D4000099580937401E091A501F091A6018D8130
:100D500009958093750184E0D2CF45DDA99A80E0A2
:100D6000CECF80916D0081110EC08A819B81092EAA
:100D7000000CAA0BBB0B8093690090936A00A093B0
:100D80006B00B0936C008E819F819093680080937C
:100D9000670082E080936F008FEFB1CF80916D008C
:100DA00081110EC08A819B81092E000CAA0BBB0BFE
:100DB0008093690090936A00A0936B00B0936C00DD
:100DC0008E819F81909368008093670083E0809379
:100DD0006F008FEF94CF16DD8093720181E08FCF8B
:100DE00080916D0081110EC08A819B81092E000CBB
:100DF000AA0BBB0B8093690090936A00A0936B00D1
:100E0000B0936C008C812D81922F9F709093640021
:100E100090E1299FA001112444275F70840F952F32
:100E2000911D909366008093650020FD8093630080
:100E30008E819F81909368008093670081E080930A
:100E40006F008FEF5CCF8A819B819093AB01809381
:100E5000AA01C29ABA9A83E079DEA99880E176DE87
:100E600081DE80E04CCF9091710030917000391795
:100E700009F439CFA2E7B1E080E0E92FF0E0EE58C5
:100E8000FF4F20812D939F5F8F5F931711F0883064
:100E9000A1F79093710033CF81E080936D008A8138
:100EA0009B81AC81BD818093690090936A00A0937F
:100EB0006B00B0936C0080E022CF80916D008111B7
:100EC0000EC08A819B81092E000CAA0BBB0B80935C
:100ED000690090936A00A0936B00B0936C0010922D
:100EE000660010926500109264008E819F8190933D
:100EF00068008093670084E080936F008FEFFFCEDF
:100F00008A8180936E001092720181E0F8CE80ECAD
:100F100039DE80E037DE8AE019DE88B3877D88BB62
:100F200087B3877D87BB2FE382E49FE02150804019
:100F30009040E1F700C00000C298BA98A99A80E0FA
:100F4000DECE43DE8093720181E0D9CE8A811ADE43
:100F500080E0D5CE8A819B81092E000CAA0BBB0BA9
:100F60008093690090936A00A0936B00B0936C002B
:100F70008E819F81909368008093670085E08093C5
:100F80006F008FEFBCCE8A819B81092E000CAA0BCB
:100F9000BB0B8093690090936A00A0936B00B093A1
:100FA0006C008E819F81909368008093670086E03B
:100FB00080936F008FEFA3CE81E080937201109237
:100FC0007301109274011092750184E098CE13DCC5
:100FD00087E080936F0080E092CEA99A04DC1092A3
:100FE0006F0080E08CCEFF920F931F93CF93DF931F
:100FF000382F792FF62E20916F008EEF820F8230DE
:1010000028F1253009F062C0462F632F80916900D6
:1010100090916A00F3DD8091690090916A00A0913F
:101020006B00B0916C008F0D911DA11DB11D8093BF
:10103000690090936A00A0936B00B0936C008F2DB1
:10104000DF91CF911F910F91FF9008956623A9F131
:101050008091690090916A00A0916B00B0916C0042
:10106000C32FD72F0FEF060F0C0F1D2F111D1BC005
:101070002BDD88838091690090916A00A0916B00BC
:10108000B0916C000196A11DB11D809369009093F1
:101090006A00A0936B00B0936C00C017D10751F0A9
:1010A00020916F002196223019F7BC01CD01F8DBA9
:1010B0008883E0CF87E08F1510F210926F008F2D9C
:1010C000DF91CF911F910F91FF900895FF24FA9423
:1010D0008F2DDF91CF911F910F91FF900895FF9277
:1010E0000F931F93CF93DF9300D000D000D0CDB7E4
:1010F000DEB7382F792F062F20916F002130F1F1C4
:101100002430E1F1263009F0D5C0462F682F8091B8
:10111000690090916A007CDD8091690090916A007D
:10112000A0916B00B0916C00800F911DA11DB11DAD
:101130008093690090936A00A0936B00B0936C0059
:101140008091670090916800801B910990936800DE
:1011500080936700892B09F0ABC010926F00FF24C9
:10116000F3948F2D26960FB6F894DEBF0FBECDBF39
:10117000DF91CF911F910F91FF900895002309F403
:1011800097C08091690090916A00A0916B00B09126
:101190006C003D837E836D817E816F5F7F4F015048
:1011A000060F172F111DF12C52C0209165003091B0
:1011B0006600232B09F059C021E0BC01CD01B3DB4F
:1011C0002091670030916800215031093093680008
:1011D000209367008091690090916A00A0916B0054
:1011E000B0916C00232B01F510926F0020916400E8
:1011F00021FF38C040916300209165003091660066
:101200004217130679F1ED81FE8131974081BC01CF
:10121000CD01F6DB8091690090916A00A0916B008E
:10122000B0916C00FF24F3940196A11DB11D809331
:10123000690090936A00A0936B00B0936C00ED81FD
:10124000FE810E171F0709F48CCF20916F00ED81EE
:10125000FE814191FE83ED83213009F4A6CF642FF6
:1012600050DCAECFFF24F394DFCF20E0BC01CD01F2
:101270005ADB809163008150809363008111A0CF7D
:101280008091690090916A00A0916B00B0916C0010
:1012900089839A83AB83BC83ED81FE813197408142
:1012A000BC01CD01ADDB809165008093630088CFE8
:1012B000F12C57CFFF24FA9454CF12BA18BA8BEFFF
:1012C00081BB8FEF87BB17BA83E084BB9EEF95BBD2
:1012D00083BF43D8789412E0C0E0D0E8E9D680918B
:1012E0006F008730D9F78091AC019091AD010197E3
:1012F0009093AD018093AC01892B81F785B3812751
:1013000085BBD093AD01C093AC01E8CFF894FFCF7B
:02131000FF5A82
:00000001FF
